:100000000C9462000C948A000C948A000C94510E9B
:100010000C94510E0C94510E0C948A000C948A008E
:100020000C948A000C9410110C948A000C948A0091
:100030000C948A000C948A000C948A000C948A0018
:100040000C942B170C948A000C9419080C945508E6
:100050000C948A000C948A000C948A000C948A00F8
:100060000C948A000C948A000000000024002700F1
:100070002A0000000000250028002B0000000000DE
:1000800023002600290004040404040404040202DA
:100090000202020203030303030301020408102007
:1000A0004080010204081020010204081020000012
:1000B0000007000201000003040600000000000029
:1000C0000000A30811241FBECFEFD8E0DEBFCDBFD4
:1000D00013E0A0E0B1E0EAE5F7E302C005900D927D
:1000E000A83DB107D9F715E0A8EDB3E001C01D9216
:1000F000A038B107E1F710E0C4ECD0E004C02297CB
:10010000FE010E94A71BC23CD107C9F70E941C1721
:100110000C94AB1B0C9400000F931F93CF93DF93B1
:10012000689F8001699F100D789F100D1124C801F0
:100130000E94BE13EC01009729F060E070E0A80176
:100140000E94A800CE01DF91CF911F910F910895D9
:10015000DC0101C06D9341505040E0F70895CF920B
:10016000DF92EF92FF920F931F93CF93DF938C0157
:100170006B017A01C0E0D0E01CC0F601EC0FFD1F5E
:1001800060810115110521F00130110589F405C0C8
:10019000E0915105F091520504C0E0915305F091B2
:1001A0005405A081B1812D913C91CF01F9010995B0
:1001B0002196CE15DF0508F3DF91CF911F910F91A6
:1001C000FF90EF90DF90CF900895FC0184E792E0DC
:1001D0009183808370935205609351058CE08093E6
:1001E000640281E0809365021092660210926702B9
:1001F000158216821782108613821482828380E011
:1002000090E0A0E0B0E0808F918FA28FB38F848FB9
:10021000958FA68FB78F11A210A213A212A284A34A
:1002200095A3A6A3B7A380A791A7A2A7B3A784A7C6
:1002300095A7A6A7B7A780AB91ABA2ABB3AB15AA06
:1002400014AA86AB97ABA0AFB1AF82AF93AFA4AF08
:10025000B5AFFE9681939193A193B19311821082D1
:10026000349681939193A193B19381939193A193A8
:10027000B19381939193A193B19381939193A1931E
:10028000B19380839183A283B3830895FC01208D71
:10029000318D428D538DB901CA010895FC01648DE1
:1002A000758D868D978D20E030E04AE754E40E94FA
:1002B00021190895FC0180A191A108952F923F92E8
:1002C0004F925F926F927F928F929F92AF92BF9266
:1002D000CF92DF92EF92FF920F931F93FC0164A1E4
:1002E00075A186A197A120E836E948E15BE40E9468
:1002F00021197B018C010E948919882777FD80953F
:10030000982F0E94BC193B014C01C801B701A40100
:1003100093010E94B81820E030E040E752E40E94C8
:10032000701A1B012C010E948919882777FD80957E
:10033000982F0E94BC195B016C01C401B30120E03D
:1003400030E048EC52E40E94701AA60195010E9428
:10035000B9187B018C01C201B101A60195010E946F
:10036000B8189B01AC01C801B7010E94B9181F91D0
:100370000F91FF90EF90DF90CF90BF90AF909F9044
:100380008F907F906F905F904F903F902F90089547
:100390002F923F924F925F926F927F928F929F9295
:1003A000AF92BF92CF92DF92EF92FF920F931F9383
:1003B000FC0160A571A582A593A520E836E948E176
:1003C0005BE40E9421197B018C010E948919882716
:1003D00077FD8095982F0E94BC193B014C01C80104
:1003E000B701A40193010E94B81820E030E040E773
:1003F00052E40E94701A1B012C010E94891988275F
:1004000077FD8095982F0E94BC195B016C01C40197
:10041000B30120E030E048EC52E40E94701AA601DB
:1004200095010E94B9187B018C01C201B101A6019E
:1004300095010E94B8189B01AC01C801B7010E9448
:10044000B9181F910F91FF90EF90DF90CF90BF9060
:10045000AF909F908F907F906F905F904F903F9064
:100460002F900895FC0164A575A586A597A520E0A9
:1004700030E048EC52E40E9421190895FC0182A169
:1004800093A19C0153E0220F331F5A95E1F7880F87
:10049000991F280F391F84A995A9280F391FC90151
:1004A0000895FC0166A977A980AD91AD28E43DE3EC
:1004B0004FE95CE30E94701A0895FC01FE9660818A
:1004C00071818281938120E030E048EC52E40E9407
:1004D00021190895FC01EE5BFF4F80819181089501
:1004E000FC01EA5BFF4F2081318142815381B901D8
:1004F000CA010895FC01E65BFF4F60817181828132
:1005000093810E948919CB010895FC01E25BFF4FA2
:100510002081318142815381B901CA010895FC01D2
:10052000EE5AFF4F2081318142815381B901CA01C6
:100530000895FC01EA5AFF4F2081318142815381A5
:10054000B901CA01089580E090E0089580E090E04C
:10055000089580E090E008952F923F924F925F922D
:100560006F927F928F929F92AF92BF92CF92DF92C3
:10057000EF92FF920F931F93DF93CF93CDB7DEB728
:100580002E970FB6F894DEBF0FBECDBF7C0100E002
:1005900010E053E0C52ED12CCC0EDD1E42E4242EFB
:1005A0003AE0432E512C4C0E5D1E2FE0622E712C32
:1005B0006C0E7D1E99E0892E912C8C0E9D1E84E977
:1005C000382E5E010894A11CB11CF70136854089C4
:1005D000F801EC55FC4F2081F801E856FC4F808172
:1005E00091819C838B833D834E832F83F1E0F88739
:1005F0008EEF8987E6E0EA8790914F049B87809190
:1006000064028C87809165028D872E869F5F909310
:100610004F046FEF7FEFF2011CC021912627822F3C
:100620008295807F822790E0382F2227AC01A3E0BB
:10063000440F551FAA95E1F724273527672F772701
:1006400062277327A4E095958795AA95E1F7682717
:100650007927E615F70509F7F6011AC08191862773
:10066000282F2295207F282730E0722F6627C90186
:1006700053E0880F991F5A95E1F7682779276A2771
:100680007B2744E0359527954A95E1F76227732744
:10069000A72FBB27E815F90509F7862F8325282FF3
:1006A0002295207F282730E0922F8827A90173E028
:1006B000440F551F7A95E1F7842795278A279B27B2
:1006C00064E0359527956A95E1F78227932789831A
:1006D0009A8380E090E0BF0146E050E00E94AF00C6
:1006E00080E090E0B60146E050E00E94AF0080E07C
:1006F00090E0B50142E050E00E94AF000E5F1F4F56
:100700000C30110509F061CF2E960FB6F894DEBFBC
:100710000FBECDBFCF91DF911F910F91FF90EF9052
:10072000DF90CF90BF90AF909F908F907F906F9011
:100730005F904F903F902F9008958F929F92AF922D
:10074000BF92CF92DF92FF920F931F93CF93DF93CD
:10075000F62E4901C82EDD248601000F111F580115
:10076000AC0CBD1CE501CC0FDD1FCC0FDD1FC85B41
:10077000DB4F18828B819C818430910509F48EC0F7
:10078000853091055CF48230910509F443C08330D3
:1007900091050CF0BFC09923C4F44FC28730910576
:1007A00009F443C18830910544F48530910509F47A
:1007B000DEC0069709F041C207C18830910509F4EF
:1007C0007AC1099709F039C2E7C18EEF681709F0BD
:1007D00034C282E090E09C838B8380E790E0C89EE7
:1007E000D001C99EB00DD89EB00D1124A852BC4FA7
:1007F00013961C92139788E390E0C89EF001C99E5F
:10080000F00DD89EF00D1124EE0FFF1FE652FC4FA5
:100810006083A4C1E5E6E61788F489818F5F898348
:10082000F501EE0FFF1FEE0FFF1FE65BFB4F808110
:100830008F5F8083188281E090E02DC080E790E098
:10084000C89EF001C99EF00DD89EF00D1124E8520B
:10085000FC4F63831D8280818627282F2295207F6D
:10086000282730E0522F4427C90163E0880F991FE1
:100870006A95E1F748275927818190E04827592751
:1008800084E0359527958A95E1F7422753275183D0
:10089000408384E090E09C838B83CFC18CE190E027
:1008A000C89EF001C99EF00DD89EF00D1124EE0FE8
:1008B000FF1FEE0FFF1FE452FC4F608380E790E0C4
:1008C000C89EF001C99EF00DD89EF00D1124E8528B
:1008D000FC4F80818627282F2295207F282730E013
:1008E000522F4427C901B3E0880F991FBA95E1F749
:1008F00048275927818190E048275927A4E035955A
:100900002795AA95E1F7422753275183408383E037
:1009100090E0C1CF80E790E0C89EF001C99EF00D45
:10092000D89EF00D1124E852FC4F65838081862704
:10093000282F2295207F282730E0522F4427C901F5
:1009400063E0880F991F6A95E1F74827592781814D
:1009500090E04827592704E0359527950A95E1F757
:10096000422753275183408385E090E094CF80E76E
:1009700090E0C89EF001C99EF00DD89EF00D1124A4
:10098000E852FC4F668380818627282F2295207F9E
:10099000282730E0522F4427C901B3E0880F991F60
:1009A000BA95E1F748275927818190E048275927D0
:1009B000A4E035952795AA95E1F74227532751835F
:1009C000408386E090E067CF80E790E0C89EF0012A
:1009D000C99EF00DD89EF00D1124E852FC4F67839C
:1009E00080818627282F2295207F282730E0522FCC
:1009F0004427C90163E0880F991F6A95E1F74827EA
:100A00005927818190E04827592794E0359527950B
:100A10009A95E1F7422753275183408383818823A6
:100A200009F446C087E090E036CF6D81F80183E09D
:100A3000EE0FFF1F8A95E1F7E01BF10B3196B3E053
:100A4000EE0FFF1FBA95E1F7E60FF11DE852FC4FDC
:100A5000F0826F5F6D8380E790E0C89EF001C99ED1
:100A6000F00DD89EF00D1124E852FC4F80818F25A7
:100A7000282F2295207F282730E0522F4427C901B4
:100A800073E0880F991F7A95E1F7482759278181EC
:100A900090E04827592794E0359527959A95E1F7F6
:100AA00042275327518340838381681709F0C5C0CB
:100AB00088E090E0F0CE80E790E0C89ED001C99E2B
:100AC000B00DD89EB00D1124A852BC4F9C91179622
:100AD000EC911797F0E0E856FD4F80818927482F69
:100AE0004295407F482750E0342F2227CA01F3E087
:100AF000880F991FFA95E1F72827392711968C91CD
:100B0000119790E028273927E4E055954795EA9515
:100B1000E1F72427352711963C932E93862F90E0FA
:100B2000307082179307F9F0F501EE0FFF1FEE0FFB
:100B3000FF1FE65BFB4F80818F5F8083188281E01F
:100B400090E09C838B83FEEF6F1709F076C082E004
:100B500090E09C838B8313961C9213978FEF9FEFEB
:100B60008D939C936AC089E090E09C838B83F8010D
:100B700063E0EE0FFF1F6A95E1F7E01BF10B319682
:100B800053E0EE0FFF1F5A95E1F78D81E80FF11D3D
:100B9000E852FC4FF08251C0262F30E080E790E011
:100BA000C89EB001C99E700DD89E700D1124685268
:100BB0007C4FFB01818190E028173907E9F0F501AE
:100BC000EE0FFF1FEE0FFF1FE65BFB4F80818F5F75
:100BD0008083188281E090E09C838B83FEEFFF1678
:100BE00061F582E090E09C838B83EB011B828FEFA9
:100BF0009FEF9983888321C081E0888381E090E022
:100C00009C838B83F80133E0EE0FFF1F3A95E1F7E9
:100C1000E01BF10B319623E0EE0FFF1F2A95E1F761
:100C20008D81E80FF11DE752FC4FF082DA01FB01E4
:100C300080E701900D928150E1F7D601AA0FBB1F0A
:100C4000AC0DBD1DAA0FBB1FAA0FBB1FA85BBB4FDE
:100C50008C91813069F58CE190E0C89EF001C99ECD
:100C6000F00DD89EF00D1124EE0FFF1FEE0FFF1FA9
:100C7000E452FC4F808116968C93169718968D91AE
:100C80009C911997892B21F41B961C921E921A97FE
:100C9000F601EE0FFF1FEC0DFD1DEE0FFF1FEE0F17
:100CA000FF1FE85BFB4F80859185019691878087C8
:100CB000F601EE0FFF1FEC0DFD1DEE0FFF1FEE0FF7
:100CC000FF1FDF01A85BBB4F16968C9116978F5FB5
:100CD000E4018E8318968D919C9119979987888746
:100CE000E65BFB4F80818A871B8610828C91DF91A7
:100CF000CF911F910F91FF90DF90CF90BF90AF9059
:100D00009F908F900895CF92DF92EF92FF920F9372
:100D10001F93DF93CF93CDB7DEB7CC57D0400FB63C
:100D2000F894DEBF0FBECDBF7C01062FFC0183818E
:100D30008823E1F40E94731760527E448040904003
:100D4000A8F40E947317695873418040904070F076
:100D50000A3011F00D3039F4F70182899389019638
:100D6000938B828B03C0F701138A128A2DE0C22E67
:100D7000D12CCC0EDD1E80E0602FA6019E012F5FDE
:100D80003F4F0E949D03882309F432C101E0F7011F
:100D900003838C89883109F46AC0893130F488234F
:100DA00059F0813009F024C139C08E3109F4E3C013
:100DB0008A3409F01DC1A5C0F70103878A89868797
:100DC00017868B89808B118ADE01559614968C913B
:100DD00014978487158682E490E0E80EF91EF601E8
:100DE00080859185F701918380838EEB9FEFE80EDC
:100DF000F91EF701EC5BFF4F16968C9180831182F0
:100E00000E947317F70165837683878390878481B7
:100E1000882311F0F701028381E0FBC0F6016689A7
:100E2000778980E090E00E94BA1920E030E04AE73C
:100E300054E40E942119F701608F718F828F938F84
:100E4000F601608D718D882777FD8095982F0E941F
:100E5000BC19F701648F758F868F978FF60186A175
:100E6000992787FD9095F70191A380A3D5CFF6012F
:100E700060897189828993890E94BC19F70164A3F2
:100E800075A386A397A3F6016489758986899789D6
:100E90000E94BC19F70160A771A782A793A78E01D2
:100EA0000B5E1F4FF801848DF70182A313A2F80196
:100EB000858DF70184AB15AAF8016489758980E0F6
:100EC00090E00E94BA19F70160AB71AB82AB93ABB3
:100ED000F601608D718D828D938D0E94BC19F70192
:100EE00064A775A786A797A7F801628D738D80E028
:100EF00090E00E94BA19F70162AF73AF84AF95AF6B
:100F00008BCFF60184859585A685B785F70186ABDD
:100F100097ABA0AFB1AF86E490E0E80EF91EF60102
:100F2000608D718D882777FD8095982F0E94BC1960
:100F3000F70161937193819391937F01F601628D23
:100F4000738D80E090E00E94BA19F701608371838D
:100F50008283938384EF9FEFE80EF91EF601808968
:100F60009189A289B389F70180839183A283B38396
:100F700082EC9FEF3BC0EEE4F0E0EE0EFF1EF601C8
:100F8000608971898289938921EE3EE245E652E4C7
:100F90000E94701AF70161937193819391937F017D
:100FA0008E010B5E1F4FF8016481758186819781E8
:100FB00021EE3EE245E652E40E94701AF701619389
:100FC0007193819391937F01F8016485758586857E
:100FD000978521EE3EE245E652E40E94701AF70141
:100FE00060837183828393838AEA9FEFE80EF91E00
:100FF000F701848995892B853C85820F931F958BFA
:10100000848B2B8186899789820F911D978B868B84
:1010100080E0C458DF4F0FB6F894DEBF0FBECDBFDF
:10102000CF91DF911F910F91FF90EF90DF90CF90C4
:1010300008951F920F920FB60F9211242F933F9392
:101040004F938F939F93EF93FF934091C60020910E
:101050006205309163052F5F3F4F80916605909147
:101060006705282339238091640590916505281729
:10107000390779F08091620590916305E0916805E8
:10108000F0916905E80FF91F4083309363052093C1
:101090006205FF91EF919F918F914F913F912F9119
:1010A0000F900FBE0F901F9018951F920F920FB6C2
:1010B0000F9211242F933F938F939F93EF93FF935E
:1010C00020916C0530916D0580916A0590916B05BA
:1010D00028173907E9F080916C0590916D05E09132
:1010E0007005F0917105E80FF91F80818093C600AB
:1010F00080916C0590916D05019620916E0530915F
:101100006F058223932390936D0580936C0510C027
:1011100020916A0530916B0580916C0590916D0569
:101120002817390729F48091C1008F7D8093C10071
:10113000FF91EF919F918F913F912F910F900FBE53
:101140000F901F9018958F92AF92CF92EF92FF92CF
:101150000F931F9386E594E060E045EC50E024ECAB
:1011600030E000EC10E0F1ECEF2EF12CCC24C39435
:10117000E8E9AE2E70E2872E0E944A1180E8809343
:101180007B0410927C0480917C0480937E04809187
:101190007E0480937D041F910F91FF90EF90CF907C
:1011A000AF908F9008951F9311E036C020915404A2
:1011B0003091550480917C04815080937C0480910F
:1011C0007E0460917B04772767FD7095992787FDE2
:1011D00090950E94411B80937E0480917E04E82FAD
:1011E000FF27E7FDF095E558FB4F64818F5F809303
:1011F0007E04C9010E948306882371F080910C054A
:10120000882351F410930C058091790490917A040D
:1012100060E071E00E94091780917C04181634F296
:101220001F9108950E9473172091070530910805BA
:101230004091090550910A05621B730B840B950BB5
:10124000695E73408040904070F1609175047091C8
:101250007604409154045091550480917304909108
:1012600074040E94D60C0E94731760930705709354
:1012700008058093090590930A058091790490915F
:101280007A0461E371E00E9409176091790470911A
:101290007A044091540450915504809173049091C4
:1012A00074040E947E0B0895EF92FF920F931F9398
:1012B0000E9473179B01AC018091FF04909100057F
:1012C000A0910105B091020579018A01E81AF90A95
:1012D0000A0B1B0BD801C701855F9140A040B040AD
:1012E000B8F02093FF04309300054093010550931C
:1012F000020580910B05882321F481E080930B0582
:1013000002C010920B058DE060910B050E946318DE
:101310001F910F91FF90EF900895CF93DF93E0918D
:101320005404F091550482818823A1F40E9473171C
:10133000E0915404F0915504258136814781508510
:10134000621B730B840B950B69587341804090406E
:1013500008F470C00E9473172091030530910405B2
:101360004091050550910605621B730B840B950B8C
:10137000615D77408040904008F45CC0C0E0D0E000
:101380008091790490917A046FE371E00E940917CB
:1013900080915404909155040E94AC0262E370E085
:1013A00080E090E00E94BC172196C330D10541F740
:1013B000E0915404F0915504128214820E94731734
:1013C00060930305709304058093050590930605CB
:1013D00031C080917C04A0917704B0917804ED91A4
:1013E000FC9111970680F781E02DCD010995282FFA
:1013F00080917C0480917C048F5F80937C04809139
:101400007D0460917B04772767FD7095992787FDA0
:1014100090950E94411B80937D04E0917D04FF27FD
:10142000E7FDF095E558FB4F248380917D048F5FA5
:1014300080937D04E0917704F0917804A081B181DC
:1014400014962D913C911597CF01F9010995181625
:1014500019060CF4BECF0E94D3080E9454090E94C2
:101460001209DF91CF9108950F931F93DF93CF93CC
:1014700000D0CDB7DEB78FE190E00E94B913182FEE
:10148000092F68E049E020E00E949710109379044A
:1014900000937A04812F902F40E056E960E070E0DD
:1014A0000E94E50E8FE190E00E94B913182F092FDA
:1014B00066E045E020E00E949710109375040093C9
:1014C0007604812F902F40E056E960E070E00E94A2
:1014D000E50E86E594E0909378048093770440E0ED
:1014E00051EE60E070E00E943A11A0917704B09153
:1014F0007804ED91FC9111970284F385E02DCD01E4
:1015000009958091790490917A0464E571E00E94D4
:1015100009178091790490917A0465E771E00E943F
:101520001F168091790490917A0420917C05309166
:101530007D052115310511F420E835E0BE016F5F0E
:101540007F4F621B730B4AE050E00E940C168091A3
:10155000790490917A0460E871E00E9409178AE5A5
:1015600090E00E94B913182F092F609177047091B1
:1015700078040E94E500109354040093550484E11C
:1015800090E00E94B913182F092F0E942C0B109382
:101590007304009374048DE061E00E94631881E09D
:1015A00080930B058091790490917A0467E871E04B
:1015B0000E94091700E010E000FF08C08DE061E024
:1015C0000E94631881E080930B0506C08DE060E007
:1015D0000E94631810920B0562E370E080E090E0D7
:1015E0000E94BC170F5F1F4F0A3F110529F780911A
:1015F000790490917A0460EA71E00E940917809161
:10160000790490917A0465E771E00E941F16809139
:10161000790490917A0420917C0530917D05211503
:10162000310511F420E835E0BE016F5F7F4F621B8A
:10163000730B4AE050E00E940C168091790490915F
:101640007A0460E871E00E9409170F900F90CF9123
:10165000DF911F910F910895FC018AEA8083138A1C
:1016600080E090E002C010820196319682319105AF
:10167000D1F70895FF920F931F938C01DB01F42E95
:10168000ED91FC910190F081E02DCB01642F099543
:10169000F80183898F0D838B1F910F91FF9008951F
:1016A000CF92DF92EF92FF920F931F93CF93DF932E
:1016B000EC017B011B8A48810E943A0B8E0183E179
:1016C000C82ED12CCC0EDD1E06C0CE01B701F8010C
:1016D00040810E943A0B0F5F1F4F0C151D05A9F7A3
:1016E000CE01B7014B890E943A0BDF91CF911F9138
:1016F0000F91FF90EF90DF90CF900895EF92FF92BF
:101700000F931F93F62EE72E8A01862F972F65EBF6
:1017100071E00E941F16D801ED91FC9102A0F3A187
:10172000E02DC8010995AB01BC018F2D9E2D22E053
:1017300030E00E9406178F2D9E2D6FEB71E00E9406
:101740001F16D801ED91FC9100A0F1A1E02DC80178
:101750000995AB01BC018F2D9E2D22E030E00E9447
:1017600006178F2D9E2D6AEC71E00E941F16D8017E
:10177000ED91FC910680F781E02DC8010995BC012F
:101780008F2D9E2D4AE050E00E940C168F2D9E2D2D
:1017900062ED71E00E941F16D801ED91FC91008866
:1017A000F189E02DC8010995AB01BC018F2D9E2D5B
:1017B00026E030E00E9406178F2D9E2D6EED71E021
:1017C0000E941F16D801ED91FC910684F785E02D4B
:1017D000C8010995AB01BC018F2D9E2D26E030E09C
:1017E0000E9406178F2D9E2D6BEE71E00E941F1632
:1017F000D801ED91FC910190F081E02DC80109958F
:10180000AB01BC018F2D9E2D22E030E00E94061717
:101810008F2D9E2D66EF71E00E941F16D801ED916D
:10182000FC910084F185E02DC8010995BC018F2D44
:101830009E2D4AE050E00E940C168F2D9E2D6BE0ED
:1018400072E00E941F16D801ED91FC910484F58589
:10185000E02DC8010995AB01BC018F2D9E2D22E022
:1018600030E00E9406178F2D9E2D68E172E00E94E5
:101870001F16D801ED91FC910284F385E02DC8017B
:101880000995AB01BC018F2D9E2D22E030E00E9416
:1018900006178F2D9E2D64E272E00E941F16D8015C
:1018A000ED91FC910280F381E02DC8010995BC0106
:1018B0008F2D9E2D4AE050E00E940C168F2D9E2DFC
:1018C0006CE272E00E941F16D801ED91FC91028833
:1018D000F389E02DC8010995AB01BC018F2D9E2D28
:1018E00022E030E00E9406178F2D9E2D66E372E005
:1018F0000E941F16D801ED91FC910480F581E02D26
:10190000C8010995BC018F2D9E2D4AE050E00E9430
:101910000C168F2D9E2D6DE372E00E941F16D801CC
:10192000ED91FC91028CF38DE02DC8010995AB017E
:10193000BC018F2D9E2D22E030E00E9406178F2DD6
:101940009E2D65E472E00E941F16D801ED91FC9176
:10195000048CF58DE02DC8010995AB01BC018F2DDC
:101960009E2D22E030E00E9406178F2D9E2D6DE403
:1019700072E00E941F16D801ED91FC91068CF78D44
:10198000E02DC8010995AB01BC018F2D9E2D22E0F1
:1019900030E00E9406178F2D9E2D65E572E00E94B3
:1019A00009171F910F91FF90EF9008952F923F928A
:1019B0004F925F926F927F928F929F92AF92BF925F
:1019C000CF92DF92EF92FF920F931F93DF93CF930B
:1019D000CDB7DEB72A970FB6F894DEBF0FBECDBFE6
:1019E0009A8789871B018A01DA01ED91FC910088B1
:1019F000F189E02DCA01099520E030E048EC52E47D
:101A00000E9421196B017C01D801ED91FC910684A3
:101A1000F785E02DC801099520E030E048EC52E45C
:101A20000E9421194B015C01D801ED91FC910190BC
:101A3000F081E02DC80109950E94D31A0E948919EE
:101A40002B013C01D801ED91FC910484F585E02D3A
:101A5000C80109956D837E838F839887D801ED91A6
:101A6000FC9102A0F3A1E02DC801099569837A8356
:101A70008B839C83C701B60120E030E044E353EC44
:101A80000E941D1987FD0AC0C701B60120E030E0A1
:101A900044E353E40E946C1A181654F40F2EF0E03D
:101AA000CF2EF0E0DF2EF0E0EF2EF0E0FF2EF02D55
:101AB000C501B40120E030E044EB52EC0E941D1956
:101AC00087FD0AC0C501B40120E030E044EB52E4D8
:101AD0000E946C1A181654F40F2EF0E08F2EF0E0CE
:101AE0009F2EF0E0AF2EF0E0BF2EF02DC701B60123
:101AF00020E836E948E15BE40E94701A0E94D31A9C
:101B00000E9489197B018C01C501B40120E836E9E6
:101B100048E15BE40E94701A0E94D31A0E9489195E
:101B2000E985FA85E1822F2D332727FD3A95228317
:101B30009801552737FD5095452F2383E12E112716
:101B4000E7FC1095F12E012FE4826583272F3327C0
:101B500027FD3A9526839C01552737FD5095452F43
:101B60002783692F992767FD9095792F892F6087A3
:101B70004186852D992787FD9A958287C301BB27CA
:101B800097FDB095AB2F8387872DBB2787FDB09539
:101B90009B2FAB2F84876D817E818F81988520E07C
:101BA00030E048EC52E40E94701A0E948E19A98518
:101BB000BA851D966C931D97672F770F770B1E962E
:101BC0006C931E971F961C921F9750961C926981CA
:101BD0007A818B819C8120E030E04AE754E40E94C6
:101BE000701A0E94D31A0E948E19E985FA85618BBA
:101BF000672F770F770B628B89859A85B1010E94D9
:101C0000500B2A960FB6F894DEBF0FBECDBFCF9112
:101C1000DF911F910F91FF90EF90DF90CF90BF90D9
:101C2000AF909F908F907F906F905F904F903F907C
:101C30002F900895CF93DF93EC018A8D9B8D892B94
:101C400061F1A0910D05B0910E05AC17BD0729F10A
:101C5000109771F05396ED91FC91549790815596A1
:101C60008C9180958923808310920E0510920D052A
:101C70008E8D8E7F8E8F10924F0580914F058093B1
:101C80005005D0930E05C0930D05EB89FC8980812A
:101C90009D89892B808381E001C080E0DF91CF9115
:101CA00008951F920F920FB60F9211242F933F9316
:101CB0004F936F937F938F939F93AF93BF93EF93C4
:101CC000FF93A0910D05B0910E05109709F46DC01A
:101CD0005E968C915E971E96ED91FC911F971D96D6
:101CE0009C911D9781FF05C08081892309F45DC007
:101CF00004C08081892309F058C05396ED91FC916E
:101D00005497908155968C9155978095892380831F
:101D100056968D919C9157970197F1F758966D9132
:101D20007C9159971E96ED91FC911F971D963C91C1
:101D30001D9740E028E0CB010197F1F7469580819F
:101D4000832309F040682150B1F75E968C915E972D
:101D500081FD409580914F05282F30E02F5F3F4F48
:101D60002F73307080915005821749F0E0914F0534
:101D7000F0E0E15FFA4F408320934F0507C05E9685
:101D80008C915E9781605E968C935E975A968D914A
:101D90009C915B970197F1F75396ED91FC915497C5
:101DA000808155969C91892B8083FF91EF91BF9103
:101DB000AF919F918F917F916F914F913F912F9113
:101DC0000F900FBE0F901F901895CF93DF93EC01EB
:101DD0009A01AB011D8E1C8E1B8E1A8E198E188EC9
:101DE0001F8A1E8A60E079E08DE390E00E94761BF6
:101DF0002430310518F481E090E002C0C901039756
:101E00009D8F8C8F8C85863108F074C0C9019695A2
:101E100087958F31910518F481E090E001C04E97CD
:101E20009F8B8E8B2330310518F481E090E002C047
:101E3000C9010297998F888FC901880F991F820F56
:101E4000931F96958795969587958031910518F4FF
:101E500081E090E001C00F979B8F8A8F8C8586313F
:101E600028F4E8E6F0E0A8E6B0E004C0E0E0F0E046
:101E7000A0E0B0E09081883010F484E005C08E309E
:101E800010F481E001C082E0892B8C938C8588302E
:101E900018F48DE690E00CC08E3018F48BE690E0DC
:101EA00007C0863118F080E090E002C08CE690E038
:101EB0009C8B8B8B4C85483040F481E090E002C0D5
:101EC000880F991F4A95E2F710C0242F30E04E305A
:101ED00018F42850304002C02E50304081E090E08D
:101EE00002C0880F991F2A95E2F78D8B8C8D9D8DEE
:101EF0000197F1F7CE010E941A0EDF91CF9108955C
:101F000020910D0530910E052817390731F4909175
:101F1000500580914F05981719F42FEF3FEF0FC030
:101F2000E0915005F0E0E15FFA4F2081809150058B
:101F300090E001968F7390708093500530E0C90156
:101F4000089520910D0530910E052817390719F0D5
:101F500020E030E00EC080914F052091500590E0C8
:101F6000805C9F4F821B910960E470E00E94411BDE
:101F70009C01C9010895FF920F931F93DC015C96A9
:101F80004D915C915D974115510549F481E090E0D8
:101F900013969C938E93129720E030E041C05196A7
:101FA000ED91FC91529750961C915097012F0095FE
:101FB000FFB65E962C915E972695217011F021E078
:101FC0006095F894222319F08081812B02C08081D2
:101FD00080238083CA010197F1F738E070E060FF49
:101FE00003C08081812B02C0808180238083CA014D
:101FF0000197F1F7315019F075956795EFCF2223CE
:1020000019F08081802302C08081812B8083FFBEF4
:102010005C968D919C915D970197F1F721E030E0FE
:10202000C9011F910F91FF90089520910D053091E6
:102030000E052817390749F49FB7F89410924F05F9
:1020400080914F05809350059FBF089520910D0505
:1020500030910E052817390731F490915005809181
:102060004F05981719F42FEF3FEF0AC0E091500584
:10207000F0E0E15FFA4F8081282F332727FD30956C
:10208000C90108951F93CF93DF93EC01162F862F7C
:1020900060E00E9424188E8D81FD04C0812F61E0D4
:1020A0000E9463181C87212F30E0C90186569F4F7C
:1020B000FC0184918D872A573F4FF9016491E62FE7
:1020C000F0E0EE0FFF1FE458FF4F859194919F873A
:1020D0008E87DF91CF911F9108951F93CF93DF9348
:1020E000EC01162F60E08E8D81FF61E0812F0E9450
:1020F0006318812F61E00E942418212F30E0C9016C
:1021000086569F4FFC018491888B2A573F4FF901D7
:102110006491E62FF0E0EE0FFF1FEE58FF4F859120
:1021200094919A8B898BDF91CF911F910895FF92A3
:102130000F931F938C01F62EFC011382128288EEFE
:1021400093E0A0E0B0E084839583A683B78384EB1B
:1021500093E091838083178A168A118E108E138ED6
:10216000128E158E148E868D2170220F8C7F822BFD
:10217000868FC801642F0E946D10C8016F2D0E94C8
:1021800042101F910F91FF90089580915B059091EF
:102190005C05A0915D05B0915E050196A11DB11D84
:1021A00080935B0590935C05A0935D05B0935E05FD
:1021B00080915B0590915C05A0915D05B0915E05F5
:1021C000209155053091560540915705509158057D
:1021D00082179307A407B50710F180915F05882344
:1021E000F1F481E080935F0580915B0590915C053F
:1021F000A0915D05B0915E05821B930BA40BB50BFE
:1022000080935B0590935C05A0935D05B0935E059C
:10221000E0915905F0915A05099510925F050895CE
:102220001F920F920FB60F9211242F933F934F934B
:102230005F936F937F938F939F93AF93BF93EF932E
:10224000FF9380916005909161058093B2000E9498
:10225000C510FF91EF91BF91AF919F918F917F91A9
:102260006F915F914F913F912F910F900FBE0F9003
:102270001F9018950F931F93DC01ED91FC9102883C
:10228000F389E02D20E030E000E010E009951F9197
:102290000F9108958F92AF92CF92EF92FF920F938A
:1022A0001F93DF93CF93CDB7DEB7FC011382128269
:1022B00088EE93E0A0E0B0E084839583A683B783A3
:1022C00084EC93E091838083558744873787268702
:1022D000118B008BF38AE28AC48AA58A868A70E011
:1022E000CB0123E0880F991F2A95E1F79C012E5915
:1022F0003A4F308F278B86599A4F928F818F81E08A
:1023000090E002C0880F991F6A95E2F7209172054C
:10231000282B20937205CF0140E051EE60E070E081
:102320000E943A11CF91DF911F910F91FF90EF9092
:10233000CF90AF908F900895FC01838D882319F47E
:102340002FEF3FEF0DC00788F08DE02D2081318108
:1023500082819381281B390B84819581282339231D
:10236000C9010895FC01838D882319F42FEF3FEFF5
:1023700011C0018CF28DE02D208131818281938109
:10238000281B390B2095309584819581282339238A
:102390002F5F3F4FC9010895FC01838D882361F0B1
:1023A000A789B08D2D913C91119712968D919C919A
:1023B00013972817390721F44FEF5FEFCA010895EB
:1023C00012968D919C9113971696ED91FC9117970B
:1023D000E80FF91F408112968D919C9113970196F9
:1023E00014962D913C9115978223932313969C93D9
:1023F0008E93129750E0E2CFFC01838D882351F039
:102400000788F08DE02D208131818281938128170A
:10241000390721F42FEF3FEFC9010895828193819D
:102420000680F781E02DE80FF91F8081282F30E02A
:10243000F3CFDC015796ED91FC91589782819381FF
:10244000918380835996ED91FC915A978081918177
:10245000938382830895DC015B968C915B9788233C
:10246000A9F15996ED91FC915A97208131812F5F06
:102470003F4F84819581282339235C968C915C970A
:10248000882329F08281938128173907F9F0828106
:10249000938128173907D9F3808191810680F781CC
:1024A000E02DE80FF91F60835996ED91FC915A9742
:1024B000318320835296ED91FC91539780815696FB
:1024C0009C91892B808321E030E002C020E030E045
:1024D000C9010895CF93DF93EC011B821A828A8190
:1024E0009B81998388831D821C828E819F810097A6
:1024F00021F00E945B141F821E82DF91CF9108950C
:102500000F931F938C01DC015296ED91FC91539730
:10251000208156968C91569755969C915597892B6C
:1025200080958223808357968D919C9158970E9425
:102530006A12F801818D928D0E946A12D8015B9611
:102540001C921F910F9108950F931F93CF93DF93C8
:102550008C01FC011382128282819381918380839A
:1025600041E0A1E0B0E001C04F5FFD01042E02C0D8
:10257000EE0FFF1F0A94E2F79B0182E061307807BB
:1025800010F020E032E0E217F30770F3C1E0D0E092
:1025900002C0CC0FDD1F4A95E2F72197F801268192
:1025A00037812115310541F0848195818C179D0774
:1025B00089F0C9010E945B14F801D583C483CE0160
:1025C00001960E94BE139C01F8019783868380E0E8
:1025D000232B09F081E0DF91CF911F910F91089596
:1025E000AF92BF92CF92DF92EF92FF920F931F9321
:1025F000CF93DF937C015A016B01E901DC015B960B
:102600008C915B978823F1F02115310539F45796A9
:10261000ED91FC915897C481D58121960115110542
:1026200049F4D7015996ED91FC915A97048115818F
:102630000F5F1F4FD701ED91FC910088F189E02DCC
:10264000C7010995F7018789908D209711F4C0E89B
:10265000D0E0BE010E94A412882381F0D7015996D0
:102660008D919C915A970115110511F400E110E02C
:10267000B8010E94A412882309F04DC0D701ED9142
:10268000FC910088F189E02DC701099567C0D70149
:102690005096ED91FC915197B0E0AB16B1EEBB06B0
:1026A000B0E0CB06B0E0DB0609F454C081E090E076
:1026B000D70154960C9002C0880F991F0A94E2F734
:1026C000808360E079E08DE390E0A60195010E94AF
:1026D000761B2150304040405040CA01B90122E0F1
:1026E00030E040E050E00E94761BD7011C96ED914F
:1026F000FC911D9730831E96ED91FC911F972083CE
:10270000D7015296ED91FC915397808155969C91FB
:10271000892B808323C0D7015996ED91FC915A975C
:102720001382128282819381918380835796ED91E7
:10273000FC915897138212828281938191838083C6
:1027400081E05B968C931A141B041C041D040CF48A
:102750009ECFD6CF108220E130E0C7CFDF91CF915E
:102760001F910F91FF90EF90DF90CF90BF90AF90AF
:10277000089561E070E00E948C0008950F931F930C
:10278000CF93DF93BC018230910510F462E070E0DA
:10279000E0917E05F0917F0540E050E0A0E0B0E0E0
:1027A00024C08081918186179707D0F086179707FC
:1027B00071F482819381109729F013969C938E93E4
:1027C00012972CC090937F0580937E0527C04115FA
:1027D000510519F08417950718F48D01AC01EF012C
:1027E000DF01828193819C01F9013097D1F6411577
:1027F0005105F9F0CA01861B970B8430910580F4CE
:102800008A819B810115110521F0F8019383828350
:1028100004C090937F0580937E05FE01329645C0EB
:10282000FE01E80FF91F61937193029799838883E2
:102830003CC080917C0590917D05892B41F480916D
:102840006C0290916D0290937D0580937C05409180
:102850006E0250916F024115510541F44DB75EB7BC
:1028600080916A0290916B02481B590B20917C0564
:1028700030917D0524173507B0F4CA01821B930BF4
:102880008617970780F0AB014E5F5F4F841795075F
:1028900050F0420F531F50937D0540937C05F90182
:1028A0006193719302C0E0E0F0E0CF01DF91CF913E
:1028B0001F910F910895CF93DF939C01009709F426
:1028C0008FC0EC0122971B821A8260917E05709165
:1028D0007F056115710581F488819981820F931FAD
:1028E00020917C0530917D052817390739F5D09363
:1028F0007D05C0937C0574C0DB0140E050E0AC175F
:10290000BD0708F1BB83AA83FE0121913191E20F3B
:10291000F31FAE17BF0779F48D919C911197280F83
:10292000391F2E5F3F4F3983288312968D919C91DA
:1029300013979B838A834115510571F4D0937F05CA
:10294000C0937E054DC012968D919C911397AD0159
:10295000009711F0DC01D3CFDA011396DC93CE930C
:102960001297FA0121913191E20FF31FCE17DF0781
:1029700069F488819981280F391F2E5F3F4FFA0132
:10298000318320838A819B8193838283E0E0F0E01E
:10299000DB0112968D919C911397009719F0BC0161
:1029A000FD01F6CFAB014E5F5F4FDB018D919C9136
:1029B000840F951F20917C0530917D0528173907DC
:1029C00079F4309729F410927F0510927E0502C0A9
:1029D000138212824250504050937D0540937C05F3
:1029E000DF91CF910895CF92DF92EF92FF920F93F4
:1029F0001F93CF93DF937C016B018A01C0E0D0E08D
:102A00000FC0D6016D916D01D701ED91FC91019040
:102A1000F081E02DC7010995C80FD91F0150104062
:102A20000115110571F7CE01DF91CF911F910F9123
:102A3000FF90EF90DF90CF900895EF92FF920F9369
:102A40001F938C01DC01ED91FC910190F081E02D50
:102A50006DE009957C01D801ED91FC910190F08128
:102A6000E02DC8016AE009959C012E0D3F1DC901AA
:102A70001F910F91FF90EF900895CF93DF93EC019A
:102A80006115710519F420E030E00FC0DB010D90F5
:102A90000020E9F71197A61BB70BE881F9810280A6
:102AA000F381E02DAD0109959C01C901DF91CF9122
:102AB00008954F925F927F928F929F92AF92BF92B2
:102AC000CF92DF92EF92FF920F931F93DF93CF93FA
:102AD000CDB7DEB7A1970FB6F894DEBF0FBECDBF5E
:102AE0002C01742ECB01223008F42AE019A231E225
:102AF000C32ED12CCC0EDD1E822E9924AA24BB24F9
:102B0000672D752FA50194010E94541B79018A013C
:102B1000C801B701A50194010E94221B472D461B45
:102B20000894C108D1084A3014F4405D01C0495CE2
:102B3000F6014083E114F1040105110521F07E2C1A
:102B40005F2DC801DDCFC201B6010E943D15A196DF
:102B50000FB6F894DEBF0FBECDBFCF91DF911F91AE
:102B60000F91FF90EF90DF90CF90BF90AF909F902C
:102B70008F907F905F904F900895DC012115310573
:102B800041F4ED91FC910190F081E02D642F0995C5
:102B900008950E9459150895CF92DF92EF92FF9207
:102BA0000F931F93CF93DF93EC016A017B012115F3
:102BB000310541F4E881F9810190F081E02D642F25
:102BC00009951FC02A303105D1F477FF17C0E8817D
:102BD000F9810190F081E02D6DE209958C01442787
:102BE0005527BA014C195D096E097F09CE012AE00B
:102BF0000E9459159801280F391F04C02AE00E942D
:102C000059159C01C901DF91CF911F910F91FF9040
:102C1000EF90DF90CF900895EF92FF920F931F9364
:102C20007B019A010027F7FC0095102FB801A7013E
:102C30000E94CC151F910F91FF90EF9008950E9474
:102C40003D1508957F928F929F92AF92BF92CF923F
:102C5000DF92EF92FF920F931F93CF93DF934C017C
:102C60007A018B01722ECB01BA01A80197010E9453
:102C7000F31A882321F0C40166E572E021C0C0E0A8
:102C8000D0E057016801E894D7F8C601B5012FEFED
:102C90003FEF4FE75FE70E94F31A882351F4C60124
:102CA000B5012FEF3FEF4FE75FE70E941D191816A0
:102CB00014F0C1E0D0E0219739F0C4016AE572E078
:102CC0000E943D15EC0193C0C801B7012FEF3FEF03
:102CD0004FE75FE40E946C1A181654F0C801B70160
:102CE0002FEF3FEF4FE75FEC0E941D19882324F47C
:102CF000C4016EE572E0E4CFC801B70120E030E026
:102D000040E050E00E941D1987FD03C0C0E0D0E004
:102D10000EC0D401ED91FC910190F081E02DC40131
:102D20006DE20995EC0117FB109517F9109520E05D
:102D300030E040E05FE3DD240BC0CA01B90120E0D0
:102D400030E040E251E40E9421199B01AC01D39490
:102D5000D71498F3C801B7010E94B9185B016C0140
:102D60000E948E197B018C01C401B801A7012AE0E1
:102D700030E00E94BD15C80FD91F772039F0C4017B
:102D800062E672E00E943D15C80FD91FC801B70165
:102D90000E94BA199B01AC01C601B5010E94B81886
:102DA00024C020E030E040E251E40E94701A7B0130
:102DB0008C010E9489195B016C01CC24B7FCC09482
:102DC000DC2CC401B601A5012AE030E00E94CC153C
:102DD000C80FD91FC601B5010E94BC199B01AC01E7
:102DE000C801B7010E94B8187A947720D1F6CE01B5
:102DF000DF91CF911F910F91FF90EF90DF90CF90D7
:102E0000BF90AF909F908F907F9008950E94221660
:102E10000895EF92FF920F931F937C010E943D153E
:102E20008C01C7010E941D15080F191FC8011F91B1
:102E30000F91FF90EF900895CF93DF930E94811739
:102E40000E94340AC0E0D0E00E948D092097E1F38F
:102E50000E940000F9CF1F920F920FB60F9211241B
:102E60002F933F938F939F93AF93BF938091770559
:102E700090917805A0917905B0917A0530917B0504
:102E80000196A11DB11D232F2D5F2D3720F02D5749
:102E90000196A11DB11D20937B058093770590932A
:102EA0007805A0937905B0937A0580917305909188
:102EB0007405A0917505B09176050196A11DB11D0F
:102EC0008093730590937405A0937505B093760570
:102ED000BF91AF919F918F913F912F910F900FBE16
:102EE0000F901F9018958FB7F89420917705309127
:102EF00078054091790550917A058FBFB901CA01D3
:102F00000895789484B5826084BD84B5816084BD61
:102F100085B5826085BD85B5816085BDEEE6F0E052
:102F2000808181608083E1E8F0E0108280818260AE
:102F30008083808181608083E0E8F0E0808181602F
:102F40008083E1EBF0E0808184608083E0EBF0E05F
:102F5000808181608083EAE7F0E080818460808303
:102F600080818260808380818160808380818068AD
:102F700080831092C1000895EF92FF920F931F93E8
:102F8000CF93DF937B018C013FB7F8948091730559
:102F900090917405A0917505B091760526B5A89B12
:102FA00005C02F3F19F00196A11DB11D3FBFBA2FDB
:102FB000A92F982F8827820F911DA11DB11D52E0C6
:102FC000880F991FAA1FBB1F5A95D1F7EC0130C07B
:102FD0000E94B7183FB7F8948091730590917405DB
:102FE000A0917505B091760526B5A89B05C02F3F29
:102FF00019F00196A11DB11D3FBFBA2FA92F982F1F
:103000008827820F911DA11DB11D32E0880F991FE5
:10301000AA1FBB1F3A95D1F78C1B9D0B885E93406E
:10302000B8F20894E108F10801091109C851DC4F10
:10303000E114F1040105110559F6DF91CF911F91BB
:103040000F91FF90EF900895CF93DF93482F50E0BA
:10305000CA0186569F4FFC0134914A575F4FFA01CF
:103060008491882369F190E0880F991FFC01E85949
:10307000FF4FA591B491FC01EE58FF4FC591D4913B
:10308000662351F42FB7F8948C91932F9095892350
:103090008C93888189230BC0623061F42FB7F89438
:1030A0008C91932F909589238C938881832B88838F
:1030B0002FBF06C09FB7F8948C91832B8C939FBF32
:1030C000DF91CF910895482F50E0CA0182559F4F5C
:1030D000FC012491CA0186569F4FFC0194914A57E6
:1030E0005F4FFA013491332309F440C0222351F198
:1030F000233071F0243028F42130A1F0223011F572
:1031000014C02630B1F02730C1F02430D9F404C007
:10311000809180008F7703C0809180008F7D8093A5
:10312000800010C084B58F7702C084B58F7D84BDC8
:1031300009C08091B0008F7703C08091B0008F7D6F
:103140008093B000E32FF0E0EE0FFF1FEE58FF4F2B
:10315000A591B4912FB7F894662321F48C919095A2
:10316000892302C08C91892B8C932FBF08950895D9
:103170005058BB27AA270ED075C166D130F06BD14D
:1031800020F031F49F3F11F41EF45BC10EF4E09582
:10319000E7FB51C1E92F77D180F3BA1762077307B4
:1031A0008407950718F071F49EF58FC10EF4E09531
:1031B0000B2EBA2FA02D0B01B90190010C01CA01F1
:1031C000A0011124FF27591B99F0593F50F4503E9C
:1031D00068F11A16F040A22F232F342F4427585F8E
:1031E000F3CF469537952795A795F0405395C9F7A6
:1031F0007EF41F16BA0B620B730B840BBAF091505E
:10320000A1F0FF0FBB1F661F771F881FC2F70EC0FC
:10321000BA0F621F731F841F48F4879577956795CF
:10322000B795F7959E3F08F0B3CF9395880F08F0B8
:103230009927EE0F979587950895D9D008F481E0E6
:1032400008950CD00FC107D140F0FED030F021F42A
:103250005F3F19F0F0C0511139C1F3C014D198F398
:103260009923C9F35523B1F3951B550BBB27AA2707
:1032700062177307840738F09F5F5F4F220F331F79
:10328000441FAA1FA9F333D00E2E3AF0E0E830D045
:1032900091505040E695001CCAF729D0FE2F27D048
:1032A000660F771F881FBB1F261737074807AB0716
:1032B000B0E809F0BB0B802DBF01FF2793585F4F8B
:1032C0002AF09E3F510568F0B6C000C15F3FECF3A5
:1032D000983EDCF3869577956795B795F7959F5F50
:1032E000C9F7880F911D9695879597F90895E1E0A4
:1032F000660F771F881FBB1F621773078407BA0703
:1033000020F0621B730B840BBA0BEE1F88F7E0955D
:10331000089504D06894B111D9C00895BCD088F044
:103320009F5790F0B92F9927B751A0F0D1F0660FB1
:10333000771F881F991F1AF0BA95C9F712C0B130CC
:1033400081F0C3D0B1E00895C0C0672F782F8827DF
:10335000B85F39F0B93FCCF3869577956795B3950B
:10336000D9F73EF490958095709561957F4F8F4F7A
:103370009F4F0895E89409C097FB3EF4909580957F
:10338000709561957F4F8F4F9F4F9923A9F0F92F2B
:1033900096E9BB279395F695879577956795B795A9
:1033A000F111F8CFFAF4BB0F11F460FF1BC06F5F8F
:1033B0007F4F8F4F9F4F16C0882311F096E911C0A1
:1033C000772321F09EE8872F762F05C0662371F0C2
:1033D00096E8862F70E060E02AF09A95660F771FD6
:1033E000881FDAF7880F9695879597F90895990FB2
:1033F0000008550FAA0BE0E8FEEF16161706E807BF
:10340000F907C0F012161306E407F50798F0621BDF
:10341000730B840B950B39F40A2661F0232B242BB4
:10342000252B21F408950A2609F4A140A6958FEFD3
:10343000811D811D089597F99F6780E870E060E025
:1034400008959FEF80EC089500240A94161617063D
:1034500018060906089500240A9412161306140685
:1034600005060895092E0394000C11F4882352F0E8
:10347000BB0F40F4BF2B11F460FF04C06F5F7F4FA0
:103480008F4F9F4F089557FD9058440F551F59F087
:103490005F3F71F04795880F97FB991F61F09F3F41
:1034A00079F087950895121613061406551FF2CF6A
:1034B0004695F1DF08C0161617061806991FF1CFBA
:1034C00086957105610508940895E894BB276627E1
:1034D0007727CB0197F908958ADF08F48FEF0895D5
:1034E0000BD0C0CFB1DF28F0B6DF18F0952309F07C
:1034F000A2CFA7CF1124EACFC6DFA0F3959FD1F3C7
:10350000950F50E0551F629FF001729FBB27F00D91
:10351000B11D639FAA27F00DB11DAA1F649F6627E6
:10352000B00DA11D661F829F2227B00DA11D621F35
:10353000739FB00DA11D621F839FA00D611D221FEF
:10354000749F3327A00D611D231F849F600D211DD3
:10355000822F762F6A2F11249F5750408AF0E1F076
:1035600088234AF0EE0FFF1FBB1F661F771F881FBF
:1035700091505040A9F79E3F510570F05CCFA6CF07
:103580005F3FECF3983EDCF3869577956795B795AA
:10359000F795E7959F5FC1F7FE2B880F911D9695D4
:1035A000879597F9089577DFE0F09E37D8F0963940
:1035B000B8F49E3848F4672F782F8827985FF9CFA2
:1035C00086957795679593959539D0F3B62FB17019
:1035D0006B0F711D811D20F48795779567959395E5
:1035E00006C020C073CF03DF880B990B0895882392
:1035F00071F4772321F09850872B762F07C066232C
:1036000011F499270DC09051862B70E060E02AF0EC
:103610009A95660F771F881FDAF7880F969587951A
:1036200097F908959F3F49F0915028F48695779532
:103630006795B7959F5F80389F4F880F96958795C0
:1036400097F90895629FD001739FF001829FE00D6A
:10365000F11D649FE00DF11D929FF00D839FF00D11
:10366000749FF00D659FF00D9927729FB00DE11DBD
:10367000F91F639FB00DE11DF91FBD01CF0111249A
:10368000089597FB092E07260AD077FD04D049D06C
:1036900006D000201AF4709561957F4F0895F6F7D3
:1036A000909581959F4F0895A1E21A2EAA1BBB1BEE
:1036B000FD010DC0AA1FBB1FEE1FFF1FA217B307FE
:1036C000E407F50720F0A21BB30BE40BF50B661F14
:1036D000771F881F991F1A9469F7609570958095D8
:1036E00090959B01AC01BD01CF01089597FB092E78
:1036F00005260ED057FD04D0D7DF0AD0001C38F4C1
:1037000050954095309521953F4F4F4F5F4F08950D
:10371000F6F790958095709561957F4F8F4F9F4FED
:103720000895AA1BBB1B51E107C0AA1FBB1FA61708
:10373000B70710F0A61BB70B881F991F5A95A9F75A
:1037400080959095BC01CD010895EE0FFF1F059067
:0A375000F491E02D0994F894FFCFE6
:10375A00466972737420706172736520646F6E6556
:10376A002E2053746172742073656E64696E6720CB
:10377A006F6E2057616C6B65726120706F72742E68
:10378A000073656E6454656C656D65747279004D7D
:10379A00616B696E67207261746520726571756507
:1037AA0073742E00496E697469616C697A696E670F
:1037BA00204D61766C696E6B3257616C6B65726114
:1037CA0020302E3900467265652072616D3A2000FC
:1037DA002062797465730057616974696E6720663F
:1037EA006F722041504D20746F20626F6F742E00EB
:1037FA00496E697469616C697A6174696F6E206473
:10380A006F6E652E00566F6C746167653A200020F2
:10381A0043757272656E743A2000204675656C3A7B
:10382A002000204C617469747564653A2000204C4C
:10383A006F6E6769747564653A200020475053209B
:10384A00416C743A20002047505320737461747598
:10385A0073202B20736174733A2000204750532041
:10386A0073706565643A200020486F6D6520616C4D
:10387A00743A2000204D6F64653A200020436F752A
:10388A007273653A20002052504D3A20002041635D
:10389A0063583A200020416363593A20002041636B
:1038AA00635A3A2000006E616E00696E66006F7698
:1038BA0066002E000C010000000080008005000058
:1038CA000000000032026A027A025A013E025D02D8
:1038DA005102C8015E017002A302A902A602850272
:1038EA008F0299024E014601327C8900EDD9687730
:1038FA00000000590000000000000000D69FDCA86C
:10390A001817AA90437327F6B968EDF4DED409FEB6
:10391A00E61C1C84DDE80B992927D6DF8D210F03CD
:10392A006418EFEE1EF0B7828200941500347C0012
:10393A0000001400988F0000000000000000000042
:10394A0000E7B73F3600000000000000AF669ED0D7
:10395A003800000000000000000000000000000025
:10396A00000000000000000000000000000000004D
:10397A00000000000000000000000000000086DBDC
:10398A00D0BC5416131586004E44BD7F6F15159092
:10399A00010000000000000000000000000000001C
:1039AA00000000000000000000000000000000000D
:1039BA0000000000000000000000000000000000FD
:1039CA0000000000000000000000000000000000ED
:1039DA0000000000000000000000000000000000DD
:1039EA0000CC31AA2C532E0002000200050002006E
:1039FA000500020001000200030006000A000B0095
:103A0A0000000000BB0FF314A10F800F2610151041
:103A1A00000000002B12F3149C11CC11FC11191296
:083A2A00B2113A118012F012F2
:00000001FF
